{
  "_format": "hh-sol-artifact-1",
  "contractName": "HD",
  "sourceName": "contracts/HD.sol",
  "abi": [
    {
      "inputs": [
        {
          "internalType": "bytes32",
          "name": "_root",
          "type": "bytes32"
        },
        {
          "internalType": "address",
          "name": "_VRFCoordinator",
          "type": "address"
        },
        {
          "internalType": "uint64",
          "name": "subscriptionId",
          "type": "uint64"
        }
      ],
      "stateMutability": "nonpayable",
      "type": "constructor"
    },
    {
      "inputs": [
        {
          "internalType": "address",
          "name": "have",
          "type": "address"
        },
        {
          "internalType": "address",
          "name": "want",
          "type": "address"
        }
      ],
      "name": "OnlyCoordinatorCanFulfill",
      "type": "error"
    },
    {
      "anonymous": false,
      "inputs": [
        {
          "indexed": true,
          "internalType": "address",
          "name": "owner",
          "type": "address"
        },
        {
          "indexed": true,
          "internalType": "address",
          "name": "approved",
          "type": "address"
        },
        {
          "indexed": true,
          "internalType": "uint256",
          "name": "tokenId",
          "type": "uint256"
        }
      ],
      "name": "Approval",
      "type": "event"
    },
    {
      "anonymous": false,
      "inputs": [
        {
          "indexed": true,
          "internalType": "address",
          "name": "owner",
          "type": "address"
        },
        {
          "indexed": true,
          "internalType": "address",
          "name": "operator",
          "type": "address"
        },
        {
          "indexed": false,
          "internalType": "bool",
          "name": "approved",
          "type": "bool"
        }
      ],
      "name": "ApprovalForAll",
      "type": "event"
    },
    {
      "anonymous": false,
      "inputs": [
        {
          "indexed": true,
          "internalType": "address",
          "name": "user",
          "type": "address"
        },
        {
          "indexed": false,
          "internalType": "uint256",
          "name": "quantity",
          "type": "uint256"
        }
      ],
      "name": "Minted",
      "type": "event"
    },
    {
      "anonymous": false,
      "inputs": [
        {
          "indexed": true,
          "internalType": "address",
          "name": "previousOwner",
          "type": "address"
        },
        {
          "indexed": true,
          "internalType": "address",
          "name": "newOwner",
          "type": "address"
        }
      ],
      "name": "OwnershipTransferred",
      "type": "event"
    },
    {
      "anonymous": false,
      "inputs": [
        {
          "indexed": true,
          "internalType": "address",
          "name": "user",
          "type": "address"
        },
        {
          "indexed": false,
          "internalType": "uint256",
          "name": "tokenId",
          "type": "uint256"
        }
      ],
      "name": "Revealed",
      "type": "event"
    },
    {
      "anonymous": false,
      "inputs": [
        {
          "indexed": true,
          "internalType": "address",
          "name": "from",
          "type": "address"
        },
        {
          "indexed": true,
          "internalType": "address",
          "name": "to",
          "type": "address"
        },
        {
          "indexed": true,
          "internalType": "uint256",
          "name": "tokenId",
          "type": "uint256"
        }
      ],
      "name": "Transfer",
      "type": "event"
    },
    {
      "inputs": [
        {
          "internalType": "address",
          "name": "to",
          "type": "address"
        },
        {
          "internalType": "uint256",
          "name": "tokenId",
          "type": "uint256"
        }
      ],
      "name": "approve",
      "outputs": [],
      "stateMutability": "nonpayable",
      "type": "function"
    },
    {
      "inputs": [
        {
          "internalType": "address",
          "name": "owner",
          "type": "address"
        }
      ],
      "name": "balanceOf",
      "outputs": [
        {
          "internalType": "uint256",
          "name": "",
          "type": "uint256"
        }
      ],
      "stateMutability": "view",
      "type": "function"
    },
    {
      "inputs": [
        {
          "internalType": "bytes32",
          "name": "_dna",
          "type": "bytes32"
        },
        {
          "internalType": "uint256",
          "name": "_totalSupply",
          "type": "uint256"
        },
        {
          "internalType": "uint256",
          "name": "_price",
          "type": "uint256"
        },
        {
          "internalType": "uint256",
          "name": "_maxMint",
          "type": "uint256"
        },
        {
          "components": [
            {
              "internalType": "bytes32",
              "name": "dna",
              "type": "bytes32"
            },
            {
              "internalType": "uint256",
              "name": "supply",
              "type": "uint256"
            },
            {
              "internalType": "uint256",
              "name": "percentDropRate",
              "type": "uint256"
            },
            {
              "components": [
                {
                  "internalType": "string",
                  "name": "name",
                  "type": "string"
                },
                {
                  "internalType": "string",
                  "name": "description",
                  "type": "string"
                },
                {
                  "internalType": "string",
                  "name": "image",
                  "type": "string"
                },
                {
                  "internalType": "bytes32",
                  "name": "derivedCapsule",
                  "type": "bytes32"
                },
                {
                  "components": [
                    {
                      "internalType": "string",
                      "name": "faction",
                      "type": "string"
                    },
                    {
                      "internalType": "string",
                      "name": "Rarity",
                      "type": "string"
                    },
                    {
                      "internalType": "uint256",
                      "name": "level",
                      "type": "uint256"
                    },
                    {
                      "components": [
                        {
                          "internalType": "uint256",
                          "name": "hp",
                          "type": "uint256"
                        },
                        {
                          "internalType": "uint256",
                          "name": "strength",
                          "type": "uint256"
                        },
                        {
                          "internalType": "uint256",
                          "name": "agility",
                          "type": "uint256"
                        },
                        {
                          "internalType": "uint256",
                          "name": "resistance",
                          "type": "uint256"
                        }
                      ],
                      "internalType": "struct HDLibrary.Stats",
                      "name": "stats",
                      "type": "tuple"
                    }
                  ],
                  "internalType": "struct HDLibrary.Attribute",
                  "name": "attributes",
                  "type": "tuple"
                }
              ],
              "internalType": "struct HDLibrary.Metadata",
              "name": "metadata",
              "type": "tuple"
            }
          ],
          "internalType": "struct HDLibrary.Divergent[]",
          "name": "_divergents",
          "type": "tuple[]"
        },
        {
          "internalType": "string",
          "name": "_defaultImage",
          "type": "string"
        }
      ],
      "name": "createCapsule",
      "outputs": [],
      "stateMutability": "nonpayable",
      "type": "function"
    },
    {
      "inputs": [
        {
          "internalType": "uint256",
          "name": "tokenId",
          "type": "uint256"
        }
      ],
      "name": "getApproved",
      "outputs": [
        {
          "internalType": "address",
          "name": "",
          "type": "address"
        }
      ],
      "stateMutability": "view",
      "type": "function"
    },
    {
      "inputs": [
        {
          "internalType": "bytes32",
          "name": "",
          "type": "bytes32"
        }
      ],
      "name": "hdCapsules",
      "outputs": [
        {
          "internalType": "bytes32",
          "name": "dna",
          "type": "bytes32"
        },
        {
          "internalType": "uint256",
          "name": "totalSupply",
          "type": "uint256"
        },
        {
          "internalType": "uint256",
          "name": "price",
          "type": "uint256"
        },
        {
          "internalType": "uint256",
          "name": "maxMint",
          "type": "uint256"
        }
      ],
      "stateMutability": "view",
      "type": "function"
    },
    {
      "inputs": [
        {
          "internalType": "address",
          "name": "owner",
          "type": "address"
        },
        {
          "internalType": "address",
          "name": "operator",
          "type": "address"
        }
      ],
      "name": "isApprovedForAll",
      "outputs": [
        {
          "internalType": "bool",
          "name": "",
          "type": "bool"
        }
      ],
      "stateMutability": "view",
      "type": "function"
    },
    {
      "inputs": [],
      "name": "merkleRoot",
      "outputs": [
        {
          "internalType": "bytes32",
          "name": "",
          "type": "bytes32"
        }
      ],
      "stateMutability": "view",
      "type": "function"
    },
    {
      "inputs": [],
      "name": "name",
      "outputs": [
        {
          "internalType": "string",
          "name": "",
          "type": "string"
        }
      ],
      "stateMutability": "view",
      "type": "function"
    },
    {
      "inputs": [],
      "name": "owner",
      "outputs": [
        {
          "internalType": "address",
          "name": "",
          "type": "address"
        }
      ],
      "stateMutability": "view",
      "type": "function"
    },
    {
      "inputs": [
        {
          "internalType": "uint256",
          "name": "tokenId",
          "type": "uint256"
        }
      ],
      "name": "ownerOf",
      "outputs": [
        {
          "internalType": "address",
          "name": "",
          "type": "address"
        }
      ],
      "stateMutability": "view",
      "type": "function"
    },
    {
      "inputs": [
        {
          "internalType": "uint256",
          "name": "requestId",
          "type": "uint256"
        },
        {
          "internalType": "uint256[]",
          "name": "randomWords",
          "type": "uint256[]"
        }
      ],
      "name": "rawFulfillRandomWords",
      "outputs": [],
      "stateMutability": "nonpayable",
      "type": "function"
    },
    {
      "inputs": [],
      "name": "renounceOwnership",
      "outputs": [],
      "stateMutability": "nonpayable",
      "type": "function"
    },
    {
      "inputs": [
        {
          "internalType": "uint256",
          "name": "_tokenId",
          "type": "uint256"
        }
      ],
      "name": "reveal",
      "outputs": [],
      "stateMutability": "nonpayable",
      "type": "function"
    },
    {
      "inputs": [
        {
          "internalType": "address",
          "name": "from",
          "type": "address"
        },
        {
          "internalType": "address",
          "name": "to",
          "type": "address"
        },
        {
          "internalType": "uint256",
          "name": "tokenId",
          "type": "uint256"
        }
      ],
      "name": "safeTransferFrom",
      "outputs": [],
      "stateMutability": "nonpayable",
      "type": "function"
    },
    {
      "inputs": [
        {
          "internalType": "address",
          "name": "from",
          "type": "address"
        },
        {
          "internalType": "address",
          "name": "to",
          "type": "address"
        },
        {
          "internalType": "uint256",
          "name": "tokenId",
          "type": "uint256"
        },
        {
          "internalType": "bytes",
          "name": "data",
          "type": "bytes"
        }
      ],
      "name": "safeTransferFrom",
      "outputs": [],
      "stateMutability": "nonpayable",
      "type": "function"
    },
    {
      "inputs": [
        {
          "internalType": "address",
          "name": "operator",
          "type": "address"
        },
        {
          "internalType": "bool",
          "name": "approved",
          "type": "bool"
        }
      ],
      "name": "setApprovalForAll",
      "outputs": [],
      "stateMutability": "nonpayable",
      "type": "function"
    },
    {
      "inputs": [
        {
          "internalType": "bytes32",
          "name": "_root",
          "type": "bytes32"
        }
      ],
      "name": "setMerkleRoot",
      "outputs": [],
      "stateMutability": "nonpayable",
      "type": "function"
    },
    {
      "inputs": [
        {
          "internalType": "bytes4",
          "name": "interfaceId",
          "type": "bytes4"
        }
      ],
      "name": "supportsInterface",
      "outputs": [
        {
          "internalType": "bool",
          "name": "",
          "type": "bool"
        }
      ],
      "stateMutability": "view",
      "type": "function"
    },
    {
      "inputs": [],
      "name": "symbol",
      "outputs": [
        {
          "internalType": "string",
          "name": "",
          "type": "string"
        }
      ],
      "stateMutability": "view",
      "type": "function"
    },
    {
      "inputs": [
        {
          "internalType": "uint256",
          "name": "tokenId",
          "type": "uint256"
        }
      ],
      "name": "tokenURI",
      "outputs": [
        {
          "internalType": "string",
          "name": "",
          "type": "string"
        }
      ],
      "stateMutability": "view",
      "type": "function"
    },
    {
      "inputs": [
        {
          "internalType": "address",
          "name": "from",
          "type": "address"
        },
        {
          "internalType": "address",
          "name": "to",
          "type": "address"
        },
        {
          "internalType": "uint256",
          "name": "tokenId",
          "type": "uint256"
        }
      ],
      "name": "transferFrom",
      "outputs": [],
      "stateMutability": "nonpayable",
      "type": "function"
    },
    {
      "inputs": [
        {
          "internalType": "address",
          "name": "newOwner",
          "type": "address"
        }
      ],
      "name": "transferOwnership",
      "outputs": [],
      "stateMutability": "nonpayable",
      "type": "function"
    },
    {
      "inputs": [
        {
          "internalType": "uint256",
          "name": "_tokenId",
          "type": "uint256"
        },
        {
          "components": [
            {
              "internalType": "string",
              "name": "name",
              "type": "string"
            },
            {
              "internalType": "string",
              "name": "description",
              "type": "string"
            },
            {
              "internalType": "string",
              "name": "image",
              "type": "string"
            },
            {
              "internalType": "bytes32",
              "name": "derivedCapsule",
              "type": "bytes32"
            },
            {
              "components": [
                {
                  "internalType": "string",
                  "name": "faction",
                  "type": "string"
                },
                {
                  "internalType": "string",
                  "name": "Rarity",
                  "type": "string"
                },
                {
                  "internalType": "uint256",
                  "name": "level",
                  "type": "uint256"
                },
                {
                  "components": [
                    {
                      "internalType": "uint256",
                      "name": "hp",
                      "type": "uint256"
                    },
                    {
                      "internalType": "uint256",
                      "name": "strength",
                      "type": "uint256"
                    },
                    {
                      "internalType": "uint256",
                      "name": "agility",
                      "type": "uint256"
                    },
                    {
                      "internalType": "uint256",
                      "name": "resistance",
                      "type": "uint256"
                    }
                  ],
                  "internalType": "struct HDLibrary.Stats",
                  "name": "stats",
                  "type": "tuple"
                }
              ],
              "internalType": "struct HDLibrary.Attribute",
              "name": "attributes",
              "type": "tuple"
            }
          ],
          "internalType": "struct HDLibrary.Metadata",
          "name": "_metadata",
          "type": "tuple"
        }
      ],
      "name": "updateMetadata",
      "outputs": [],
      "stateMutability": "nonpayable",
      "type": "function"
    },
    {
      "inputs": [
        {
          "internalType": "uint256",
          "name": "_quantity",
          "type": "uint256"
        },
        {
          "internalType": "bytes32[]",
          "name": "_proof",
          "type": "bytes32[]"
        },
        {
          "internalType": "bytes32",
          "name": "_capsuleType",
          "type": "bytes32"
        }
      ],
      "name": "whitelistMint",
      "outputs": [],
      "stateMutability": "payable",
      "type": "function"
    }
  ],
  "bytecode": "0x60a06040527f4b09e658ed251bcafeebbc69400383d49f344ace09b9576fe248bb02c003fe9f60001b600b55620186a0600c60006101000a81548163ffffffff021916908363ffffffff1602179055506003600c60046101000a81548161ffff021916908361ffff1602179055506001600c60066101000a81548163ffffffff021916908363ffffffff1602179055503480156200009c57600080fd5b5060405162006553380380620065538339818101604052810190620000c291906200049a565b816040518060400160405280601081526020017f48756d616e20446976657267656e6365000000000000000000000000000000008152506040518060400160405280600281526020017f484400000000000000000000000000000000000000000000000000000000000081525081600090805190602001906200014792919062000300565b5080600190805190602001906200016092919062000300565b50505062000183620001776200023260201b60201c565b6200023a60201b60201c565b8073ffffffffffffffffffffffffffffffffffffffff1660808173ffffffffffffffffffffffffffffffffffffffff1681525050508260098190555081600a60006101000a81548173ffffffffffffffffffffffffffffffffffffffff021916908373ffffffffffffffffffffffffffffffffffffffff16021790555080600c600a6101000a81548167ffffffffffffffff021916908367ffffffffffffffff1602179055505050506200055a565b600033905090565b6000600760009054906101000a900473ffffffffffffffffffffffffffffffffffffffff16905081600760006101000a81548173ffffffffffffffffffffffffffffffffffffffff021916908373ffffffffffffffffffffffffffffffffffffffff1602179055508173ffffffffffffffffffffffffffffffffffffffff168173ffffffffffffffffffffffffffffffffffffffff167f8be0079c531659141344cd1fd0a4f28419497f9722a3daafe3b4186f6b6457e060405160405180910390a35050565b8280546200030e9062000525565b90600052602060002090601f0160209004810192826200033257600085556200037e565b82601f106200034d57805160ff19168380011785556200037e565b828001600101855582156200037e579182015b828111156200037d57825182559160200191906001019062000360565b5b5090506200038d919062000391565b5090565b5b80821115620003ac57600081600090555060010162000392565b5090565b600080fd5b6000819050919050565b620003ca81620003b5565b8114620003d657600080fd5b50565b600081519050620003ea81620003bf565b92915050565b600073ffffffffffffffffffffffffffffffffffffffff82169050919050565b60006200041d82620003f0565b9050919050565b6200042f8162000410565b81146200043b57600080fd5b50565b6000815190506200044f8162000424565b92915050565b600067ffffffffffffffff82169050919050565b620004748162000455565b81146200048057600080fd5b50565b600081519050620004948162000469565b92915050565b600080600060608486031215620004b657620004b5620003b0565b5b6000620004c686828701620003d9565b9350506020620004d9868287016200043e565b9250506040620004ec8682870162000483565b9150509250925092565b7f4e487b7100000000000000000000000000000000000000000000000000000000600052602260045260246000fd5b600060028204905060018216806200053e57607f821691505b602082108103620005545762000553620004f6565b5b50919050565b608051615fd66200057d6000396000818161087301526108c70152615fd66000f3fe60806040526004361061014b5760003560e01c80637cb64759116100b6578063add4daed1161006f578063add4daed14610482578063b88d4fde146104ab578063c2ca0ac5146104d4578063c87b56dd146104fd578063e985e9c51461053a578063f2fde38b146105775761014b565b80637cb647591461039557806381d2c601146103be5780638da5cb5b146103e757806395d89b41146104125780639fcf1ac11461043d578063a22cb465146104595761014b565b80632eb4a7ab116101085780632eb4a7ab1461027057806342842e0e1461029b5780635fd4b3d6146102c45780636352211e1461030457806370a0823114610341578063715018a61461037e5761014b565b806301ffc9a71461015057806306fdde031461018d578063081812fc146101b8578063095ea7b3146101f55780631fe543e31461021e57806323b872dd14610247575b600080fd5b34801561015c57600080fd5b5061017760048036038101906101729190613dd6565b6105a0565b6040516101849190613e1e565b60405180910390f35b34801561019957600080fd5b506101a2610682565b6040516101af9190613ed2565b60405180910390f35b3480156101c457600080fd5b506101df60048036038101906101da9190613f2a565b610714565b6040516101ec9190613f98565b60405180910390f35b34801561020157600080fd5b5061021c60048036038101906102179190613fdf565b61075a565b005b34801561022a57600080fd5b5061024560048036038101906102409190614167565b610871565b005b34801561025357600080fd5b5061026e600480360381019061026991906141c3565b610931565b005b34801561027c57600080fd5b50610285610991565b604051610292919061422f565b60405180910390f35b3480156102a757600080fd5b506102c260048036038101906102bd91906141c3565b610997565b005b3480156102d057600080fd5b506102eb60048036038101906102e69190614276565b6109b7565b6040516102fb94939291906142b2565b60405180910390f35b34801561031057600080fd5b5061032b60048036038101906103269190613f2a565b6109e7565b6040516103389190613f98565b60405180910390f35b34801561034d57600080fd5b50610368600480360381019061036391906142f7565b610a6d565b6040516103759190614324565b60405180910390f35b34801561038a57600080fd5b50610393610b24565b005b3480156103a157600080fd5b506103bc60048036038101906103b79190614276565b610b38565b005b3480156103ca57600080fd5b506103e560048036038101906103e0919061444f565b610b4a565b005b3480156103f357600080fd5b506103fc610fde565b6040516104099190613f98565b60405180910390f35b34801561041e57600080fd5b50610427611008565b6040516104349190613ed2565b60405180910390f35b61045760048036038101906104529190614570565b61109a565b005b34801561046557600080fd5b50610480600480360381019061047b9190614610565b611881565b005b34801561048e57600080fd5b506104a960048036038101906104a4919061487e565b611897565b005b3480156104b757600080fd5b506104d260048036038101906104cd919061497b565b61192b565b005b3480156104e057600080fd5b506104fb60048036038101906104f69190613f2a565b61198d565b005b34801561050957600080fd5b50610524600480360381019061051f9190613f2a565b611bcd565b6040516105319190613ed2565b60405180910390f35b34801561054657600080fd5b50610561600480360381019061055c91906149fe565b611cdf565b60405161056e9190613e1e565b60405180910390f35b34801561058357600080fd5b5061059e600480360381019061059991906142f7565b611d73565b005b60007f80ac58cd000000000000000000000000000000000000000000000000000000007bffffffffffffffffffffffffffffffffffffffffffffffffffffffff1916827bffffffffffffffffffffffffffffffffffffffffffffffffffffffff1916148061066b57507f5b5e139f000000000000000000000000000000000000000000000000000000007bffffffffffffffffffffffffffffffffffffffffffffffffffffffff1916827bffffffffffffffffffffffffffffffffffffffffffffffffffffffff1916145b8061067b575061067a82611df6565b5b9050919050565b60606000805461069190614a6d565b80601f01602080910402602001604051908101604052809291908181526020018280546106bd90614a6d565b801561070a5780601f106106df5761010080835404028352916020019161070a565b820191906000526020600020905b8154815290600101906020018083116106ed57829003601f168201915b5050505050905090565b600061071f82611e60565b6004600083815260200190815260200160002060009054906101000a900473ffffffffffffffffffffffffffffffffffffffff169050919050565b6000610765826109e7565b90508073ffffffffffffffffffffffffffffffffffffffff168373ffffffffffffffffffffffffffffffffffffffff16036107d5576040517f08c379a00000000000000000000000000000000000000000000000000000000081526004016107cc90614b10565b60405180910390fd5b8073ffffffffffffffffffffffffffffffffffffffff166107f4611eab565b73ffffffffffffffffffffffffffffffffffffffff16148061082357506108228161081d611eab565b611cdf565b5b610862576040517f08c379a000000000000000000000000000000000000000000000000000000000815260040161085990614ba2565b60405180910390fd5b61086c8383611eb3565b505050565b7f000000000000000000000000000000000000000000000000000000000000000073ffffffffffffffffffffffffffffffffffffffff163373ffffffffffffffffffffffffffffffffffffffff161461092357337f00000000000000000000000000000000000000000000000000000000000000006040517f1cf993f400000000000000000000000000000000000000000000000000000000815260040161091a929190614bc2565b60405180910390fd5b61092d8282611f6c565b5050565b61094261093c611eab565b82611fa3565b610981576040517f08c379a000000000000000000000000000000000000000000000000000000000815260040161097890614c5d565b60405180910390fd5b61098c838383612038565b505050565b60095481565b6109b28383836040518060200160405280600081525061192b565b505050565b600f6020528060005260406000206000915090508060000154908060010154908060020154908060030154905084565b6000806109f383612331565b9050600073ffffffffffffffffffffffffffffffffffffffff168173ffffffffffffffffffffffffffffffffffffffff1603610a64576040517f08c379a0000000000000000000000000000000000000000000000000000000008152600401610a5b90614cc9565b60405180910390fd5b80915050919050565b60008073ffffffffffffffffffffffffffffffffffffffff168273ffffffffffffffffffffffffffffffffffffffff1603610add576040517f08c379a0000000000000000000000000000000000000000000000000000000008152600401610ad490614d5b565b60405180910390fd5b600360008373ffffffffffffffffffffffffffffffffffffffff1673ffffffffffffffffffffffffffffffffffffffff168152602001908152602001600020549050919050565b610b2c61236e565b610b3660006123ec565b565b610b4061236e565b8060098190555050565b610b5261236e565b6000600f60008060001b81526020019081526020016000209050878160000181905550868160010181905550858160020181905550848160030181905550600084849050905060005b81811015610d8b576000868683818110610bb857610bb7614d7b565b5b9050602002810190610bca9190614daf565b610bd390614e6b565b9050836004018190806001815401808255809150506001900390600052602060002090600e02016000909190919091506000820151816000015560208201518160010155604082015181600201556060820151816003016000820151816000019080519060200190610c46929190613907565b506020820151816001019080519060200190610c63929190613907565b506040820151816002019080519060200190610c80929190613907565b50606082015181600301556080820151816004016000820151816000019080519060200190610cb0929190613907565b506020820151816001019080519060200190610ccd929190613907565b5060408201518160020155606082015181600301600082015181600001556020820151816001015560408201518160020155606082015181600301555050505050505050868683818110610d2457610d23614d7b565b5b9050602002810190610d369190614daf565b6020013560146000898986818110610d5157610d50614d7b565b5b9050602002810190610d639190614daf565b600001358152602001908152602001600020819055505080610d8490614ead565b9050610b9b565b5081600f60008b8152602001908152602001600020600082015481600001556001820154816001015560028201548160020155600382015481600301556004820181600401908054610dde92919061398d565b509050506040518060a001604052806040518060400160405280600281526020017f484400000000000000000000000000000000000000000000000000000000000081525081526020016040518060400160405280600781526020017f496e697469616c0000000000000000000000000000000000000000000000000081525081526020018481526020016000801916815260200160405180608001604052806040518060200160405280600081525081526020016040518060200160405280600081525081526020016000815260200160405180608001604052806000815260200160008152602001600081526020016000815250815250815250601260008b81526020019081526020016000206000820151816000019080519060200190610f09929190613907565b506020820151816001019080519060200190610f26929190613907565b506040820151816002019080519060200190610f43929190613907565b50606082015181600301556080820151816004016000820151816000019080519060200190610f73929190613907565b506020820151816001019080519060200190610f90929190613907565b50604082015181600201556060820151816003016000820151816000015560208201518160010155604082015181600201556060820151816003015550505050905050505050505050505050565b6000600760009054906101000a900473ffffffffffffffffffffffffffffffffffffffff16905090565b60606001805461101790614a6d565b80601f016020809104026020016040519081016040528092919081815260200182805461104390614a6d565b80156110905780601f1061106557610100808354040283529160200191611090565b820191906000526020600020905b81548152906001019060200180831161107357829003601f168201915b5050505050905090565b6000600f60008381526020019081526020016000206040518060a00160405290816000820154815260200160018201548152602001600282015481526020016003820154815260200160048201805480602002602001604051908101604052809291908181526020016000905b828210156114a957838290600052602060002090600e0201604051806080016040529081600082015481526020016001820154815260200160028201548152602001600382016040518060a001604052908160008201805461116890614a6d565b80601f016020809104026020016040519081016040528092919081815260200182805461119490614a6d565b80156111e15780601f106111b6576101008083540402835291602001916111e1565b820191906000526020600020905b8154815290600101906020018083116111c457829003601f168201915b505050505081526020016001820180546111fa90614a6d565b80601f016020809104026020016040519081016040528092919081815260200182805461122690614a6d565b80156112735780601f1061124857610100808354040283529160200191611273565b820191906000526020600020905b81548152906001019060200180831161125657829003601f168201915b5050505050815260200160028201805461128c90614a6d565b80601f01602080910402602001604051908101604052809291908181526020018280546112b890614a6d565b80156113055780601f106112da57610100808354040283529160200191611305565b820191906000526020600020905b8154815290600101906020018083116112e857829003601f168201915b50505050508152602001600382015481526020016004820160405180608001604052908160008201805461133890614a6d565b80601f016020809104026020016040519081016040528092919081815260200182805461136490614a6d565b80156113b15780601f10611386576101008083540402835291602001916113b1565b820191906000526020600020905b81548152906001019060200180831161139457829003601f168201915b505050505081526020016001820180546113ca90614a6d565b80601f01602080910402602001604051908101604052809291908181526020018280546113f690614a6d565b80156114435780601f1061141857610100808354040283529160200191611443565b820191906000526020600020905b81548152906001019060200180831161142657829003601f168201915b50505050508152602001600282015481526020016003820160405180608001604052908160008201548152602001600182015481526020016002820154815260200160038201548152505081525050815250508152505081526020019060010190611107565b5050505081525050905060008160200151036114fa576040517f08c379a00000000000000000000000000000000000000000000000000000000081526004016114f190614f41565b60405180910390fd5b6115053385856124b2565b611544576040517f08c379a000000000000000000000000000000000000000000000000000000000815260040161153b90614fad565b60405180910390fd5b806060015185601060003373ffffffffffffffffffffffffffffffffffffffff1673ffffffffffffffffffffffffffffffffffffffff1681526020019081526020016000206000858152602001908152602001600020546115a59190614fcd565b11156115e6576040517f08c379a00000000000000000000000000000000000000000000000000000000081526004016115dd9061506f565b60405180910390fd5b806020015185601160008581526020019081526020016000205461160a9190614fcd565b111561164b576040517f08c379a0000000000000000000000000000000000000000000000000000000008152600401611642906150db565b60405180910390fd5b84816040015161165b91906150fb565b34101561169d576040517f08c379a0000000000000000000000000000000000000000000000000000000008152600401611694906151a1565b60405180910390fd5b60005b8581101561179a5760006116b4600861252e565b90506116c0338261253c565b6116ca600861255a565b83601560008381526020019081526020016000208190555061177c8173__$3da7b13aea2c553e1cbaa2a8adc13e3ce0$__6308f4864984601260008a81526020019081526020016000206040518363ffffffff1660e01b8152600401611731929190615474565b600060405180830381865af415801561174e573d6000803e3d6000fd5b505050506040513d6000823e3d601f19601f820116820180604052508101906117779190615514565b612570565b611785816125e4565b5050808061179290614ead565b9150506116a0565b5084601060003373ffffffffffffffffffffffffffffffffffffffff1673ffffffffffffffffffffffffffffffffffffffff168152602001908152602001600020600084815260200190815260200160002060008282546117fb9190614fcd565b92505081905550846011600084815260200190815260200160002060008282546118259190614fcd565b925050819055503373ffffffffffffffffffffffffffffffffffffffff167f30385c845b448a36257a6a1716e6ad2e1bc2cbe333cde1e69fe849ad6511adfe866040516118729190614324565b60405180910390a25050505050565b61189361188c611eab565b83836126f7565b5050565b61189f61236e565b6119278273__$3da7b13aea2c553e1cbaa2a8adc13e3ce0$__6308f4864985856040518363ffffffff1660e01b81526004016118dc9291906156e0565b600060405180830381865af41580156118f9573d6000803e3d6000fd5b505050506040513d6000823e3d601f19601f820116820180604052508101906119229190615514565b612570565b5050565b61193c611936611eab565b83611fa3565b61197b576040517f08c379a000000000000000000000000000000000000000000000000000000000815260040161197290614c5d565b60405180910390fd5b61198784848484612863565b50505050565b803373ffffffffffffffffffffffffffffffffffffffff166119ae826109e7565b73ffffffffffffffffffffffffffffffffffffffff1614611a04576040517f08c379a00000000000000000000000000000000000000000000000000000000081526004016119fb9061575c565b60405180910390fd5b6013600083815260200190815260200160002060009054906101000a900460ff1615611a65576040517f08c379a0000000000000000000000000000000000000000000000000000000008152600401611a5c906157c8565b60405180910390fd5b6000611a70836128bf565b90506000611a7d82612def565b9050600081600e6000600d600089815260200190815260200160002054815260200190815260200160002054611ab39190615817565b90506000611ac18285612e49565b9050611b4b8673__$3da7b13aea2c553e1cbaa2a8adc13e3ce0$__6308f4864989856040518363ffffffff1660e01b8152600401611b009291906156e0565b600060405180830381865af4158015611b1d573d6000803e3d6000fd5b505050506040513d6000823e3d601f19601f82011682018060405250810190611b469190615514565b612570565b60016013600088815260200190815260200160002060006101000a81548160ff0219169083151502179055503373ffffffffffffffffffffffffffffffffffffffff167f36cb84e26ec058ba1aadcd698199fa19568d3c52427b175bd593b94ce83f67c087604051611bbd9190614324565b60405180910390a2505050505050565b6060611bd882611e60565b6000600660008481526020019081526020016000208054611bf890614a6d565b80601f0160208091040260200160405190810160405280929190818152602001828054611c2490614a6d565b8015611c715780601f10611c4657610100808354040283529160200191611c71565b820191906000526020600020905b815481529060010190602001808311611c5457829003601f168201915b505050505090506000611c82612fdf565b90506000815103611c97578192505050611cda565b600082511115611ccc578082604051602001611cb4929190615884565b60405160208183030381529060405292505050611cda565b611cd584612ff6565b925050505b919050565b6000600560008473ffffffffffffffffffffffffffffffffffffffff1673ffffffffffffffffffffffffffffffffffffffff16815260200190815260200160002060008373ffffffffffffffffffffffffffffffffffffffff1673ffffffffffffffffffffffffffffffffffffffff16815260200190815260200160002060009054906101000a900460ff16905092915050565b611d7b61236e565b600073ffffffffffffffffffffffffffffffffffffffff168173ffffffffffffffffffffffffffffffffffffffff1603611dea576040517f08c379a0000000000000000000000000000000000000000000000000000000008152600401611de19061591a565b60405180910390fd5b611df3816123ec565b50565b60007f01ffc9a7000000000000000000000000000000000000000000000000000000007bffffffffffffffffffffffffffffffffffffffffffffffffffffffff1916827bffffffffffffffffffffffffffffffffffffffffffffffffffffffff1916149050919050565b611e698161305e565b611ea8576040517f08c379a0000000000000000000000000000000000000000000000000000000008152600401611e9f90614cc9565b60405180910390fd5b50565b600033905090565b816004600083815260200190815260200160002060006101000a81548173ffffffffffffffffffffffffffffffffffffffff021916908373ffffffffffffffffffffffffffffffffffffffff160217905550808273ffffffffffffffffffffffffffffffffffffffff16611f26836109e7565b73ffffffffffffffffffffffffffffffffffffffff167f8c5be1e5ebec7d5bd14f71427d1e84f3dd0314c0f7b2291e5b200ac8c7c3b92560405160405180910390a45050565b80600081518110611f8057611f7f614d7b565b5b6020026020010151600e6000848152602001908152602001600020819055505050565b600080611faf836109e7565b90508073ffffffffffffffffffffffffffffffffffffffff168473ffffffffffffffffffffffffffffffffffffffff161480611ff15750611ff08185611cdf565b5b8061202f57508373ffffffffffffffffffffffffffffffffffffffff1661201784610714565b73ffffffffffffffffffffffffffffffffffffffff16145b91505092915050565b8273ffffffffffffffffffffffffffffffffffffffff16612058826109e7565b73ffffffffffffffffffffffffffffffffffffffff16146120ae576040517f08c379a00000000000000000000000000000000000000000000000000000000081526004016120a5906159ac565b60405180910390fd5b600073ffffffffffffffffffffffffffffffffffffffff168273ffffffffffffffffffffffffffffffffffffffff160361211d576040517f08c379a000000000000000000000000000000000000000000000000000000000815260040161211490615a3e565b60405180910390fd5b61212a838383600161309f565b8273ffffffffffffffffffffffffffffffffffffffff1661214a826109e7565b73ffffffffffffffffffffffffffffffffffffffff16146121a0576040517f08c379a0000000000000000000000000000000000000000000000000000000008152600401612197906159ac565b60405180910390fd5b6004600082815260200190815260200160002060006101000a81549073ffffffffffffffffffffffffffffffffffffffff02191690556001600360008573ffffffffffffffffffffffffffffffffffffffff1673ffffffffffffffffffffffffffffffffffffffff168152602001908152602001600020600082825403925050819055506001600360008473ffffffffffffffffffffffffffffffffffffffff1673ffffffffffffffffffffffffffffffffffffffff16815260200190815260200160002060008282540192505081905550816002600083815260200190815260200160002060006101000a81548173ffffffffffffffffffffffffffffffffffffffff021916908373ffffffffffffffffffffffffffffffffffffffff160217905550808273ffffffffffffffffffffffffffffffffffffffff168473ffffffffffffffffffffffffffffffffffffffff167fddf252ad1be2c89b69c2b068fc378daa952ba7f163c4a11628f55a4df523b3ef60405160405180910390a461232c83838360016130a5565b505050565b60006002600083815260200190815260200160002060009054906101000a900473ffffffffffffffffffffffffffffffffffffffff169050919050565b612376611eab565b73ffffffffffffffffffffffffffffffffffffffff16612394610fde565b73ffffffffffffffffffffffffffffffffffffffff16146123ea576040517f08c379a00000000000000000000000000000000000000000000000000000000081526004016123e190615aaa565b60405180910390fd5b565b6000600760009054906101000a900473ffffffffffffffffffffffffffffffffffffffff16905081600760006101000a81548173ffffffffffffffffffffffffffffffffffffffff021916908373ffffffffffffffffffffffffffffffffffffffff1602179055508173ffffffffffffffffffffffffffffffffffffffff168173ffffffffffffffffffffffffffffffffffffffff167f8be0079c531659141344cd1fd0a4f28419497f9722a3daafe3b4186f6b6457e060405160405180910390a35050565b6000612525846040516020016124c89190615b12565b60405160208183030381529060405280519060200120848480806020026020016040519081016040528093929190818152602001838360200280828437600081840152601f19601f820116905080830192505050505050506130ab565b90509392505050565b600081600001549050919050565b6125568282604051806020016040528060008152506130c2565b5050565b6001816000016000828254019250508190555050565b6125798261305e565b6125b8576040517f08c379a00000000000000000000000000000000000000000000000000000000081526004016125af90615b9f565b60405180910390fd5b806006600084815260200190815260200160002090805190602001906125df929190613907565b505050565b6000600a60009054906101000a900473ffffffffffffffffffffffffffffffffffffffff1673ffffffffffffffffffffffffffffffffffffffff16635d3b1d30600b54600c600a9054906101000a900467ffffffffffffffff16600c60049054906101000a900461ffff16600c60009054906101000a900463ffffffff16600c60069054906101000a900463ffffffff166040518663ffffffff1660e01b8152600401612695959493929190615c1e565b6020604051808303816000875af11580156126b4573d6000803e3d6000fd5b505050506040513d601f19601f820116820180604052508101906126d89190615c86565b905080600d600084815260200190815260200160002081905550919050565b8173ffffffffffffffffffffffffffffffffffffffff168373ffffffffffffffffffffffffffffffffffffffff1603612765576040517f08c379a000000000000000000000000000000000000000000000000000000000815260040161275c90615cff565b60405180910390fd5b80600560008573ffffffffffffffffffffffffffffffffffffffff1673ffffffffffffffffffffffffffffffffffffffff16815260200190815260200160002060008473ffffffffffffffffffffffffffffffffffffffff1673ffffffffffffffffffffffffffffffffffffffff16815260200190815260200160002060006101000a81548160ff0219169083151502179055508173ffffffffffffffffffffffffffffffffffffffff168373ffffffffffffffffffffffffffffffffffffffff167f17307eab39ab6107e8899845ad3d59bd9653f200f220920489ca2b5937696c31836040516128569190613e1e565b60405180910390a3505050565b61286e848484612038565b61287a8484848461311d565b6128b9576040517f08c379a00000000000000000000000000000000000000000000000000000000081526004016128b090615d91565b60405180910390fd5b50505050565b60606000601560008481526020019081526020016000205490506000600f600083815260200190815260200160002060040180549050905060008167ffffffffffffffff81111561291357612912614024565b5b60405190808252806020026020018201604052801561294c57816020015b612939613afd565b8152602001906001900390816129315790505b5090506000805b83811015612de2576000600f6000878152602001908152602001600020600401828154811061298557612984614d7b565b5b90600052602060002090600e0201600001549050600f600087815260200190815260200160002060040182815481106129c1576129c0614d7b565b5b90600052602060002090600e020160010154601460008381526020019081526020016000205411612dd0576000600f60008881526020019081526020016000206004018381548110612a1657612a15614d7b565b5b90600052602060002090600e0201905080604051806080016040529081600082015481526020016001820154815260200160028201548152602001600382016040518060a0016040529081600082018054612a7090614a6d565b80601f0160208091040260200160405190810160405280929190818152602001828054612a9c90614a6d565b8015612ae95780601f10612abe57610100808354040283529160200191612ae9565b820191906000526020600020905b815481529060010190602001808311612acc57829003601f168201915b50505050508152602001600182018054612b0290614a6d565b80601f0160208091040260200160405190810160405280929190818152602001828054612b2e90614a6d565b8015612b7b5780601f10612b5057610100808354040283529160200191612b7b565b820191906000526020600020905b815481529060010190602001808311612b5e57829003601f168201915b50505050508152602001600282018054612b9490614a6d565b80601f0160208091040260200160405190810160405280929190818152602001828054612bc090614a6d565b8015612c0d5780601f10612be257610100808354040283529160200191612c0d565b820191906000526020600020905b815481529060010190602001808311612bf057829003601f168201915b505050505081526020016003820154815260200160048201604051806080016040529081600082018054612c4090614a6d565b80601f0160208091040260200160405190810160405280929190818152602001828054612c6c90614a6d565b8015612cb95780601f10612c8e57610100808354040283529160200191612cb9565b820191906000526020600020905b815481529060010190602001808311612c9c57829003601f168201915b50505050508152602001600182018054612cd290614a6d565b80601f0160208091040260200160405190810160405280929190818152602001828054612cfe90614a6d565b8015612d4b5780601f10612d2057610100808354040283529160200191612d4b565b820191906000526020600020905b815481529060010190602001808311612d2e57829003601f168201915b505050505081526020016002820154815260200160038201604051806080016040529081600082015481526020016001820154815260200160028201548152602001600382015481525050815250508152505081525050858581518110612db557612db4614d7b565b5b60200260200101819052508380612dcb90614ead565b945050505b5080612ddb90614ead565b9050612953565b5081945050505050919050565b6000806000905060005b8351811015612e3f57838181518110612e1557612e14614d7b565b5b60200260200101516040015182612e2c9190614fcd565b915080612e3890614ead565b9050612df9565b5080915050919050565b612e51613b2e565b6000612e5c836132a4565b905060008151905060005b81811015612fd557828181518110612e8257612e81614d7b565b5b6020026020010151604001518611612f0657600160146000858481518110612ead57612eac614d7b565b5b60200260200101516000015181526020019081526020016000206000828254612ed69190615db1565b92505081905550828181518110612ef057612eef614d7b565b5b6020026020010151606001519350505050612fd9565b82600183612f149190615db1565b81518110612f2557612f24614d7b565b5b602002602001015160400151861115612fc25760016014600085600186612f4c9190615db1565b81518110612f5d57612f5c614d7b565b5b60200260200101516000015181526020019081526020016000206000828254612f869190615db1565b9250508190555082600183612f9b9190615db1565b81518110612fac57612fab614d7b565b5b6020026020010151606001519350505050612fd9565b8080612fcd90614ead565b915050612e67565b5050505b92915050565b606060405180602001604052806000815250905090565b606061300182611e60565b600061300b612fdf565b9050600081511161302b5760405180602001604052806000815250613056565b80613035846133f7565b604051602001613046929190615884565b6040516020818303038152906040525b915050919050565b60008073ffffffffffffffffffffffffffffffffffffffff1661308083612331565b73ffffffffffffffffffffffffffffffffffffffff1614159050919050565b50505050565b50505050565b60006130ba82600954856134c5565b905092915050565b6130cc83836134dc565b6130d9600084848461311d565b613118576040517f08c379a000000000000000000000000000000000000000000000000000000000815260040161310f90615d91565b60405180910390fd5b505050565b600061313e8473ffffffffffffffffffffffffffffffffffffffff166136f9565b15613297578373ffffffffffffffffffffffffffffffffffffffff1663150b7a02613167611eab565b8786866040518563ffffffff1660e01b81526004016131899493929190615e3a565b6020604051808303816000875af19250505080156131c557506040513d601f19601f820116820180604052508101906131c29190615e9b565b60015b613247573d80600081146131f5576040519150601f19603f3d011682016040523d82523d6000602084013e6131fa565b606091505b50600081510361323f576040517f08c379a000000000000000000000000000000000000000000000000000000000815260040161323690615d91565b60405180910390fd5b805181602001fd5b63150b7a0260e01b7bffffffffffffffffffffffffffffffffffffffffffffffffffffffff1916817bffffffffffffffffffffffffffffffffffffffffffffffffffffffff19161491505061329c565b600190505b949350505050565b606060008251905060005b6001826132bc9190615db1565b8110156133ed5760005b600182846132d49190615db1565b6132de9190615db1565b8110156133d957846001826132f39190614fcd565b8151811061330457613303614d7b565b5b60200260200101516040015185828151811061332357613322614d7b565b5b60200260200101516040015111156133c657600085828151811061334a57613349614d7b565b5b60200260200101519050856001836133629190614fcd565b8151811061337357613372614d7b565b5b602002602001015186838151811061338e5761338d614d7b565b5b602002602001018190525080866001846133a89190614fcd565b815181106133b9576133b8614d7b565b5b6020026020010181905250505b80806133d190614ead565b9150506132c6565b5080806133e590614ead565b9150506132af565b5082915050919050565b6060600060016134068461371c565b01905060008167ffffffffffffffff81111561342557613424614024565b5b6040519080825280601f01601f1916602001820160405280156134575781602001600182028036833780820191505090505b509050600082602001820190505b6001156134ba578080600190039150507f3031323334353637383961626364656600000000000000000000000000000000600a86061a8153600a85816134ae576134ad6157e8565b5b04945060008503613465575b819350505050919050565b6000826134d2858461386f565b1490509392505050565b600073ffffffffffffffffffffffffffffffffffffffff168273ffffffffffffffffffffffffffffffffffffffff160361354b576040517f08c379a000000000000000000000000000000000000000000000000000000000815260040161354290615f14565b60405180910390fd5b6135548161305e565b15613594576040517f08c379a000000000000000000000000000000000000000000000000000000000815260040161358b90615f80565b60405180910390fd5b6135a260008383600161309f565b6135ab8161305e565b156135eb576040517f08c379a00000000000000000000000000000000000000000000000000000000081526004016135e290615f80565b60405180910390fd5b6001600360008473ffffffffffffffffffffffffffffffffffffffff1673ffffffffffffffffffffffffffffffffffffffff16815260200190815260200160002060008282540192505081905550816002600083815260200190815260200160002060006101000a81548173ffffffffffffffffffffffffffffffffffffffff021916908373ffffffffffffffffffffffffffffffffffffffff160217905550808273ffffffffffffffffffffffffffffffffffffffff16600073ffffffffffffffffffffffffffffffffffffffff167fddf252ad1be2c89b69c2b068fc378daa952ba7f163c4a11628f55a4df523b3ef60405160405180910390a46136f56000838360016130a5565b5050565b6000808273ffffffffffffffffffffffffffffffffffffffff163b119050919050565b600080600090507a184f03e93ff9f4daa797ed6e38ed64bf6a1f010000000000000000831061377a577a184f03e93ff9f4daa797ed6e38ed64bf6a1f01000000000000000083816137705761376f6157e8565b5b0492506040810190505b6d04ee2d6d415b85acef810000000083106137b7576d04ee2d6d415b85acef810000000083816137ad576137ac6157e8565b5b0492506020810190505b662386f26fc1000083106137e657662386f26fc1000083816137dc576137db6157e8565b5b0492506010810190505b6305f5e100831061380f576305f5e1008381613805576138046157e8565b5b0492506008810190505b612710831061383457612710838161382a576138296157e8565b5b0492506004810190505b60648310613857576064838161384d5761384c6157e8565b5b0492506002810190505b600a8310613866576001810190505b80915050919050565b60008082905060005b84518110156138ba576138a58286838151811061389857613897614d7b565b5b60200260200101516138c5565b915080806138b290614ead565b915050613878565b508091505092915050565b60008183106138dd576138d882846138f0565b6138e8565b6138e783836138f0565b5b905092915050565b600082600052816020526040600020905092915050565b82805461391390614a6d565b90600052602060002090601f016020900481019282613935576000855561397c565b82601f1061394e57805160ff191683800117855561397c565b8280016001018555821561397c579182015b8281111561397b578251825591602001919060010190613960565b5b5090506139899190613b66565b5090565b82805482825590600052602060002090600e028101928215613aec57600052602060002091600e0282015b82811115613aeb578282600082015481600001556001820154816001015560028201548160020155600382018160030160008201816000019080546139fc90614a6d565b613a07929190613b83565b506001820181600101908054613a1c90614a6d565b613a27929190613b83565b506002820181600201908054613a3c90614a6d565b613a47929190613b83565b506003820154816003015560048201816004016000820181600001908054613a6e90614a6d565b613a79929190613b83565b506001820181600101908054613a8e90614a6d565b613a99929190613b83565b5060028201548160020155600382018160030160008201548160000155600182015481600101556002820154816002015560038201548160030155505050505050505091600e019190600e01906139b8565b5b509050613af99190613c10565b5090565b6040518060800160405280600080191681526020016000815260200160008152602001613b28613b2e565b81525090565b6040518060a0016040528060608152602001606081526020016060815260200160008019168152602001613b60613cd4565b81525090565b5b80821115613b7f576000816000905550600101613b67565b5090565b828054613b8f90614a6d565b90600052602060002090601f016020900481019282613bb15760008555613bff565b82601f10613bc25780548555613bff565b82800160010185558215613bff57600052602060002091601f016020900482015b82811115613bfe578254825591600101919060010190613be3565b5b509050613c0c9190613b66565b5090565b5b80821115613cd057600080820160009055600182016000905560028201600090556003820160008082016000613c479190613d02565b600182016000613c579190613d02565b600282016000613c679190613d02565b60038201600090556004820160008082016000613c849190613d02565b600182016000613c949190613d02565b60028201600090556003820160008082016000905560018201600090556002820160009055600382016000905550505050505050600e01613c11565b5090565b6040518060800160405280606081526020016060815260200160008152602001613cfc613d42565b81525090565b508054613d0e90614a6d565b6000825580601f10613d205750613d3f565b601f016020900490600052602060002090810190613d3e9190613b66565b5b50565b6040518060800160405280600081526020016000815260200160008152602001600081525090565b6000604051905090565b600080fd5b600080fd5b60007fffffffff0000000000000000000000000000000000000000000000000000000082169050919050565b613db381613d7e565b8114613dbe57600080fd5b50565b600081359050613dd081613daa565b92915050565b600060208284031215613dec57613deb613d74565b5b6000613dfa84828501613dc1565b91505092915050565b60008115159050919050565b613e1881613e03565b82525050565b6000602082019050613e336000830184613e0f565b92915050565b600081519050919050565b600082825260208201905092915050565b60005b83811015613e73578082015181840152602081019050613e58565b83811115613e82576000848401525b50505050565b6000601f19601f8301169050919050565b6000613ea482613e39565b613eae8185613e44565b9350613ebe818560208601613e55565b613ec781613e88565b840191505092915050565b60006020820190508181036000830152613eec8184613e99565b905092915050565b6000819050919050565b613f0781613ef4565b8114613f1257600080fd5b50565b600081359050613f2481613efe565b92915050565b600060208284031215613f4057613f3f613d74565b5b6000613f4e84828501613f15565b91505092915050565b600073ffffffffffffffffffffffffffffffffffffffff82169050919050565b6000613f8282613f57565b9050919050565b613f9281613f77565b82525050565b6000602082019050613fad6000830184613f89565b92915050565b613fbc81613f77565b8114613fc757600080fd5b50565b600081359050613fd981613fb3565b92915050565b60008060408385031215613ff657613ff5613d74565b5b600061400485828601613fca565b925050602061401585828601613f15565b9150509250929050565b600080fd5b7f4e487b7100000000000000000000000000000000000000000000000000000000600052604160045260246000fd5b61405c82613e88565b810181811067ffffffffffffffff8211171561407b5761407a614024565b5b80604052505050565b600061408e613d6a565b905061409a8282614053565b919050565b600067ffffffffffffffff8211156140ba576140b9614024565b5b602082029050602081019050919050565b600080fd5b60006140e36140de8461409f565b614084565b90508083825260208201905060208402830185811115614106576141056140cb565b5b835b8181101561412f578061411b8882613f15565b845260208401935050602081019050614108565b5050509392505050565b600082601f83011261414e5761414d61401f565b5b813561415e8482602086016140d0565b91505092915050565b6000806040838503121561417e5761417d613d74565b5b600061418c85828601613f15565b925050602083013567ffffffffffffffff8111156141ad576141ac613d79565b5b6141b985828601614139565b9150509250929050565b6000806000606084860312156141dc576141db613d74565b5b60006141ea86828701613fca565b93505060206141fb86828701613fca565b925050604061420c86828701613f15565b9150509250925092565b6000819050919050565b61422981614216565b82525050565b60006020820190506142446000830184614220565b92915050565b61425381614216565b811461425e57600080fd5b50565b6000813590506142708161424a565b92915050565b60006020828403121561428c5761428b613d74565b5b600061429a84828501614261565b91505092915050565b6142ac81613ef4565b82525050565b60006080820190506142c76000830187614220565b6142d460208301866142a3565b6142e160408301856142a3565b6142ee60608301846142a3565b95945050505050565b60006020828403121561430d5761430c613d74565b5b600061431b84828501613fca565b91505092915050565b600060208201905061433960008301846142a3565b92915050565b600080fd5b60008083601f84011261435a5761435961401f565b5b8235905067ffffffffffffffff8111156143775761437661433f565b5b602083019150836020820283011115614393576143926140cb565b5b9250929050565b600080fd5b600067ffffffffffffffff8211156143ba576143b9614024565b5b6143c382613e88565b9050602081019050919050565b82818337600083830152505050565b60006143f26143ed8461439f565b614084565b90508281526020810184848401111561440e5761440d61439a565b5b6144198482856143d0565b509392505050565b600082601f8301126144365761443561401f565b5b81356144468482602086016143df565b91505092915050565b600080600080600080600060c0888a03121561446e5761446d613d74565b5b600061447c8a828b01614261565b975050602061448d8a828b01613f15565b965050604061449e8a828b01613f15565b95505060606144af8a828b01613f15565b945050608088013567ffffffffffffffff8111156144d0576144cf613d79565b5b6144dc8a828b01614344565b935093505060a088013567ffffffffffffffff8111156144ff576144fe613d79565b5b61450b8a828b01614421565b91505092959891949750929550565b60008083601f8401126145305761452f61401f565b5b8235905067ffffffffffffffff81111561454d5761454c61433f565b5b602083019150836020820283011115614569576145686140cb565b5b9250929050565b6000806000806060858703121561458a57614589613d74565b5b600061459887828801613f15565b945050602085013567ffffffffffffffff8111156145b9576145b8613d79565b5b6145c58782880161451a565b935093505060406145d887828801614261565b91505092959194509250565b6145ed81613e03565b81146145f857600080fd5b50565b60008135905061460a816145e4565b92915050565b6000806040838503121561462757614626613d74565b5b600061463585828601613fca565b9250506020614646858286016145fb565b9150509250929050565b600080fd5b600080fd5b6000608082840312156146705761466f614650565b5b61467a6080614084565b9050600061468a84828501613f15565b600083015250602061469e84828501613f15565b60208301525060406146b284828501613f15565b60408301525060606146c684828501613f15565b60608301525092915050565b600060e082840312156146e8576146e7614650565b5b6146f26080614084565b9050600082013567ffffffffffffffff81111561471257614711614655565b5b61471e84828501614421565b600083015250602082013567ffffffffffffffff81111561474257614741614655565b5b61474e84828501614421565b602083015250604061476284828501613f15565b60408301525060606147768482850161465a565b60608301525092915050565b600060a0828403121561479857614797614650565b5b6147a260a0614084565b9050600082013567ffffffffffffffff8111156147c2576147c1614655565b5b6147ce84828501614421565b600083015250602082013567ffffffffffffffff8111156147f2576147f1614655565b5b6147fe84828501614421565b602083015250604082013567ffffffffffffffff81111561482257614821614655565b5b61482e84828501614421565b604083015250606061484284828501614261565b606083015250608082013567ffffffffffffffff81111561486657614865614655565b5b614872848285016146d2565b60808301525092915050565b6000806040838503121561489557614894613d74565b5b60006148a385828601613f15565b925050602083013567ffffffffffffffff8111156148c4576148c3613d79565b5b6148d085828601614782565b9150509250929050565b600067ffffffffffffffff8211156148f5576148f4614024565b5b6148fe82613e88565b9050602081019050919050565b600061491e614919846148da565b614084565b90508281526020810184848401111561493a5761493961439a565b5b6149458482856143d0565b509392505050565b600082601f8301126149625761496161401f565b5b813561497284826020860161490b565b91505092915050565b6000806000806080858703121561499557614994613d74565b5b60006149a387828801613fca565b94505060206149b487828801613fca565b93505060406149c587828801613f15565b925050606085013567ffffffffffffffff8111156149e6576149e5613d79565b5b6149f28782880161494d565b91505092959194509250565b60008060408385031215614a1557614a14613d74565b5b6000614a2385828601613fca565b9250506020614a3485828601613fca565b9150509250929050565b7f4e487b7100000000000000000000000000000000000000000000000000000000600052602260045260246000fd5b60006002820490506001821680614a8557607f821691505b602082108103614a9857614a97614a3e565b5b50919050565b7f4552433732313a20617070726f76616c20746f2063757272656e74206f776e6560008201527f7200000000000000000000000000000000000000000000000000000000000000602082015250565b6000614afa602183613e44565b9150614b0582614a9e565b604082019050919050565b60006020820190508181036000830152614b2981614aed565b9050919050565b7f4552433732313a20617070726f76652063616c6c6572206973206e6f7420746f60008201527f6b656e206f776e6572206f7220617070726f76656420666f7220616c6c000000602082015250565b6000614b8c603d83613e44565b9150614b9782614b30565b604082019050919050565b60006020820190508181036000830152614bbb81614b7f565b9050919050565b6000604082019050614bd76000830185613f89565b614be46020830184613f89565b9392505050565b7f4552433732313a2063616c6c6572206973206e6f7420746f6b656e206f776e6560008201527f72206f7220617070726f76656400000000000000000000000000000000000000602082015250565b6000614c47602d83613e44565b9150614c5282614beb565b604082019050919050565b60006020820190508181036000830152614c7681614c3a565b9050919050565b7f4552433732313a20696e76616c696420746f6b656e2049440000000000000000600082015250565b6000614cb3601883613e44565b9150614cbe82614c7d565b602082019050919050565b60006020820190508181036000830152614ce281614ca6565b9050919050565b7f4552433732313a2061646472657373207a65726f206973206e6f74206120766160008201527f6c6964206f776e65720000000000000000000000000000000000000000000000602082015250565b6000614d45602983613e44565b9150614d5082614ce9565b604082019050919050565b60006020820190508181036000830152614d7481614d38565b9050919050565b7f4e487b7100000000000000000000000000000000000000000000000000000000600052603260045260246000fd5b600080fd5b600082356001608003833603038112614dcb57614dca614daa565b5b80830191505092915050565b600060808284031215614ded57614dec614650565b5b614df76080614084565b90506000614e0784828501614261565b6000830152506020614e1b84828501613f15565b6020830152506040614e2f84828501613f15565b604083015250606082013567ffffffffffffffff811115614e5357614e52614655565b5b614e5f84828501614782565b60608301525092915050565b6000614e773683614dd7565b9050919050565b7f4e487b7100000000000000000000000000000000000000000000000000000000600052601160045260246000fd5b6000614eb882613ef4565b91507fffffffffffffffffffffffffffffffffffffffffffffffffffffffffffffffff8203614eea57614ee9614e7e565b5b600182019050919050565b7f43415053554c455f4e4f545f464f554e44000000000000000000000000000000600082015250565b6000614f2b601183613e44565b9150614f3682614ef5565b602082019050919050565b60006020820190508181036000830152614f5a81614f1e565b9050919050565b7f4e4f545f57484954454c49535445440000000000000000000000000000000000600082015250565b6000614f97600f83613e44565b9150614fa282614f61565b602082019050919050565b60006020820190508181036000830152614fc681614f8a565b9050919050565b6000614fd882613ef4565b9150614fe383613ef4565b9250827fffffffffffffffffffffffffffffffffffffffffffffffffffffffffffffffff0382111561501857615017614e7e565b5b828201905092915050565b7f4d41585f4d494e545f5245414348454400000000000000000000000000000000600082015250565b6000615059601083613e44565b915061506482615023565b602082019050919050565b600060208201905081810360008301526150888161504c565b9050919050565b7f4d41585f535550504c595f524541434845440000000000000000000000000000600082015250565b60006150c5601283613e44565b91506150d08261508f565b602082019050919050565b600060208201905081810360008301526150f4816150b8565b9050919050565b600061510682613ef4565b915061511183613ef4565b9250817fffffffffffffffffffffffffffffffffffffffffffffffffffffffffffffffff048311821515161561514a57615149614e7e565b5b828202905092915050565b7f4e4f545f454e4f5547485f46554e445300000000000000000000000000000000600082015250565b600061518b601083613e44565b915061519682615155565b602082019050919050565b600060208201905081810360008301526151ba8161517e565b9050919050565b6151ca81613ef4565b82525050565b600082825260208201905092915050565b60008190508160005260206000209050919050565b6000815461520381614a6d565b61520d81866151d0565b94506001821660008114615228576001811461523a5761526d565b60ff198316865260208601935061526d565b615243856151e1565b60005b8381101561526557815481890152600182019150602081019050615246565b808801955050505b50505092915050565b60008160001c9050919050565b6000819050919050565b60006152a061529b83615276565b615283565b9050919050565b6152b081614216565b82525050565b6000819050919050565b60006152d36152ce83615276565b6152b6565b9050919050565b6152e381613ef4565b82525050565b6080820160008083015490506152fe816152c0565b61530b60008601826152da565b506001830154905061531c816152c0565b61532960208601826152da565b506002830154905061533a816152c0565b61534760408601826152da565b5060038301549050615358816152c0565b61536560608601826152da565b5050505050565b600060e083016000808401858303600087015261538983826151f6565b9250506001840185830360208701526153a283826151f6565b925050600284015490506153b5816152c0565b6153c260408701826152da565b50600384016153d460608701826152e9565b50819250505092915050565b600060a08301600080840185830360008701526153fd83826151f6565b92505060018401858303602087015261541683826151f6565b92505060028401858303604087015261542f83826151f6565b925050600384015490506154428161528d565b61544f60608701826152a7565b50600484018583036080870152615466838261536c565b925050819250505092915050565b600060408201905061548960008301856151c1565b818103602083015261549b81846153e0565b90509392505050565b60006154b76154b28461439f565b614084565b9050828152602081018484840111156154d3576154d261439a565b5b6154de848285613e55565b509392505050565b600082601f8301126154fb576154fa61401f565b5b815161550b8482602086016154a4565b91505092915050565b60006020828403121561552a57615529613d74565b5b600082015167ffffffffffffffff81111561554857615547613d79565b5b615554848285016154e6565b91505092915050565b600061556882613e39565b61557281856151d0565b9350615582818560208601613e55565b61558b81613e88565b840191505092915050565b6080820160008201516155ac60008501826152da565b5060208201516155bf60208501826152da565b5060408201516155d260408501826152da565b5060608201516155e560608501826152da565b50505050565b600060e0830160008301518482036000860152615608828261555d565b91505060208301518482036020860152615622828261555d565b915050604083015161563760408601826152da565b50606083015161564a6060860182615596565b508091505092915050565b600060a0830160008301518482036000860152615672828261555d565b9150506020830151848203602086015261568c828261555d565b915050604083015184820360408601526156a6828261555d565b91505060608301516156bb60608601826152a7565b50608083015184820360808601526156d382826155eb565b9150508091505092915050565b60006040820190506156f560008301856151c1565b81810360208301526157078184615655565b90509392505050565b7f4e4f545f4f574e45525f4f465f544f4b454e0000000000000000000000000000600082015250565b6000615746601283613e44565b915061575182615710565b602082019050919050565b6000602082019050818103600083015261577581615739565b9050919050565b7f544f4b454e5f414c52454144595f52455645414c454400000000000000000000600082015250565b60006157b2601683613e44565b91506157bd8261577c565b602082019050919050565b600060208201905081810360008301526157e1816157a5565b9050919050565b7f4e487b7100000000000000000000000000000000000000000000000000000000600052601260045260246000fd5b600061582282613ef4565b915061582d83613ef4565b92508261583d5761583c6157e8565b5b828206905092915050565b600081905092915050565b600061585e82613e39565b6158688185615848565b9350615878818560208601613e55565b80840191505092915050565b60006158908285615853565b915061589c8284615853565b91508190509392505050565b7f4f776e61626c653a206e6577206f776e657220697320746865207a65726f206160008201527f6464726573730000000000000000000000000000000000000000000000000000602082015250565b6000615904602683613e44565b915061590f826158a8565b604082019050919050565b60006020820190508181036000830152615933816158f7565b9050919050565b7f4552433732313a207472616e736665722066726f6d20696e636f72726563742060008201527f6f776e6572000000000000000000000000000000000000000000000000000000602082015250565b6000615996602583613e44565b91506159a18261593a565b604082019050919050565b600060208201905081810360008301526159c581615989565b9050919050565b7f4552433732313a207472616e7366657220746f20746865207a65726f2061646460008201527f7265737300000000000000000000000000000000000000000000000000000000602082015250565b6000615a28602483613e44565b9150615a33826159cc565b604082019050919050565b60006020820190508181036000830152615a5781615a1b565b9050919050565b7f4f776e61626c653a2063616c6c6572206973206e6f7420746865206f776e6572600082015250565b6000615a94602083613e44565b9150615a9f82615a5e565b602082019050919050565b60006020820190508181036000830152615ac381615a87565b9050919050565b60008160601b9050919050565b6000615ae282615aca565b9050919050565b6000615af482615ad7565b9050919050565b615b0c615b0782613f77565b615ae9565b82525050565b6000615b1e8284615afb565b60148201915081905092915050565b7f45524337323155524953746f726167653a2055524920736574206f66206e6f6e60008201527f6578697374656e7420746f6b656e000000000000000000000000000000000000602082015250565b6000615b89602e83613e44565b9150615b9482615b2d565b604082019050919050565b60006020820190508181036000830152615bb881615b7c565b9050919050565b600067ffffffffffffffff82169050919050565b615bdc81615bbf565b82525050565b600061ffff82169050919050565b615bf981615be2565b82525050565b600063ffffffff82169050919050565b615c1881615bff565b82525050565b600060a082019050615c336000830188614220565b615c406020830187615bd3565b615c4d6040830186615bf0565b615c5a6060830185615c0f565b615c676080830184615c0f565b9695505050505050565b600081519050615c8081613efe565b92915050565b600060208284031215615c9c57615c9b613d74565b5b6000615caa84828501615c71565b91505092915050565b7f4552433732313a20617070726f766520746f2063616c6c657200000000000000600082015250565b6000615ce9601983613e44565b9150615cf482615cb3565b602082019050919050565b60006020820190508181036000830152615d1881615cdc565b9050919050565b7f4552433732313a207472616e7366657220746f206e6f6e20455243373231526560008201527f63656976657220696d706c656d656e7465720000000000000000000000000000602082015250565b6000615d7b603283613e44565b9150615d8682615d1f565b604082019050919050565b60006020820190508181036000830152615daa81615d6e565b9050919050565b6000615dbc82613ef4565b9150615dc783613ef4565b925082821015615dda57615dd9614e7e565b5b828203905092915050565b600081519050919050565b600082825260208201905092915050565b6000615e0c82615de5565b615e168185615df0565b9350615e26818560208601613e55565b615e2f81613e88565b840191505092915050565b6000608082019050615e4f6000830187613f89565b615e5c6020830186613f89565b615e6960408301856142a3565b8181036060830152615e7b8184615e01565b905095945050505050565b600081519050615e9581613daa565b92915050565b600060208284031215615eb157615eb0613d74565b5b6000615ebf84828501615e86565b91505092915050565b7f4552433732313a206d696e7420746f20746865207a65726f2061646472657373600082015250565b6000615efe602083613e44565b9150615f0982615ec8565b602082019050919050565b60006020820190508181036000830152615f2d81615ef1565b9050919050565b7f4552433732313a20746f6b656e20616c7265616479206d696e74656400000000600082015250565b6000615f6a601c83613e44565b9150615f7582615f34565b602082019050919050565b60006020820190508181036000830152615f9981615f5d565b905091905056fea264697066735822122037e88645c5964b85c8985cf351a0078f949b723ae76d756ec54414abb4531c9564736f6c634300080e0033",
  "linkReferences": {
    "contracts/HDLibrary.sol": {
      "HDLibrary": [
        {
          "length": 20,
          "start": 7269
        },
        {
          "length": 20,
          "start": 7714
        },
        {
          "length": 20,
          "start": 8262
        }
      ]
    }
  },
  "deployedLinkReferences": {
    "contracts/HDLibrary.sol": {
      "HDLibrary": [
        {
          "length": 20,
          "start": 5864
        },
        {
          "length": 20,
          "start": 6309
        },
        {
          "length": 20,
          "start": 6857
        }
      ]
    }
  }
}